{
  "_format": "hh-sol-artifact-1",
  "contractName": "PokeNFT",
  "sourceName": "contracts/PokeNFT.sol",
  "abi": [
    {
      "inputs": [],
      "stateMutability": "nonpayable",
      "type": "constructor"
    },
    {
      "anonymous": false,
      "inputs": [
        {
          "indexed": true,
          "internalType": "address",
          "name": "owner",
          "type": "address"
        },
        {
          "indexed": true,
          "internalType": "address",
          "name": "approved",
          "type": "address"
        },
        {
          "indexed": true,
          "internalType": "uint256",
          "name": "tokenId",
          "type": "uint256"
        }
      ],
      "name": "Approval",
      "type": "event"
    },
    {
      "anonymous": false,
      "inputs": [
        {
          "indexed": true,
          "internalType": "address",
          "name": "owner",
          "type": "address"
        },
        {
          "indexed": true,
          "internalType": "address",
          "name": "operator",
          "type": "address"
        },
        {
          "indexed": false,
          "internalType": "bool",
          "name": "approved",
          "type": "bool"
        }
      ],
      "name": "ApprovalForAll",
      "type": "event"
    },
    {
      "anonymous": false,
      "inputs": [
        {
          "indexed": false,
          "internalType": "address",
          "name": "sender",
          "type": "address"
        },
        {
          "indexed": false,
          "internalType": "uint256",
          "name": "tokenId",
          "type": "uint256"
        }
      ],
      "name": "NewEpicNFTMinted",
      "type": "event"
    },
    {
      "anonymous": false,
      "inputs": [
        {
          "indexed": true,
          "internalType": "address",
          "name": "from",
          "type": "address"
        },
        {
          "indexed": true,
          "internalType": "address",
          "name": "to",
          "type": "address"
        },
        {
          "indexed": true,
          "internalType": "uint256",
          "name": "tokenId",
          "type": "uint256"
        }
      ],
      "name": "Transfer",
      "type": "event"
    },
    {
      "inputs": [],
      "name": "MAX_SUPPLY",
      "outputs": [
        {
          "internalType": "uint256",
          "name": "",
          "type": "uint256"
        }
      ],
      "stateMutability": "view",
      "type": "function"
    },
    {
      "inputs": [],
      "name": "MINT_PRICE",
      "outputs": [
        {
          "internalType": "uint256",
          "name": "",
          "type": "uint256"
        }
      ],
      "stateMutability": "view",
      "type": "function"
    },
    {
      "inputs": [
        {
          "internalType": "address",
          "name": "to",
          "type": "address"
        },
        {
          "internalType": "uint256",
          "name": "tokenId",
          "type": "uint256"
        }
      ],
      "name": "approve",
      "outputs": [],
      "stateMutability": "nonpayable",
      "type": "function"
    },
    {
      "inputs": [
        {
          "internalType": "address",
          "name": "owner",
          "type": "address"
        }
      ],
      "name": "balanceOf",
      "outputs": [
        {
          "internalType": "uint256",
          "name": "",
          "type": "uint256"
        }
      ],
      "stateMutability": "view",
      "type": "function"
    },
    {
      "inputs": [
        {
          "internalType": "uint256",
          "name": "tokenId",
          "type": "uint256"
        }
      ],
      "name": "getApproved",
      "outputs": [
        {
          "internalType": "address",
          "name": "",
          "type": "address"
        }
      ],
      "stateMutability": "view",
      "type": "function"
    },
    {
      "inputs": [
        {
          "internalType": "address",
          "name": "owner",
          "type": "address"
        },
        {
          "internalType": "address",
          "name": "operator",
          "type": "address"
        }
      ],
      "name": "isApprovedForAll",
      "outputs": [
        {
          "internalType": "bool",
          "name": "",
          "type": "bool"
        }
      ],
      "stateMutability": "view",
      "type": "function"
    },
    {
      "inputs": [],
      "name": "makePokeNFT",
      "outputs": [],
      "stateMutability": "payable",
      "type": "function"
    },
    {
      "inputs": [],
      "name": "name",
      "outputs": [
        {
          "internalType": "string",
          "name": "",
          "type": "string"
        }
      ],
      "stateMutability": "view",
      "type": "function"
    },
    {
      "inputs": [
        {
          "internalType": "uint256",
          "name": "tokenId",
          "type": "uint256"
        }
      ],
      "name": "ownerOf",
      "outputs": [
        {
          "internalType": "address",
          "name": "",
          "type": "address"
        }
      ],
      "stateMutability": "view",
      "type": "function"
    },
    {
      "inputs": [
        {
          "internalType": "address",
          "name": "from",
          "type": "address"
        },
        {
          "internalType": "address",
          "name": "to",
          "type": "address"
        },
        {
          "internalType": "uint256",
          "name": "tokenId",
          "type": "uint256"
        }
      ],
      "name": "safeTransferFrom",
      "outputs": [],
      "stateMutability": "nonpayable",
      "type": "function"
    },
    {
      "inputs": [
        {
          "internalType": "address",
          "name": "from",
          "type": "address"
        },
        {
          "internalType": "address",
          "name": "to",
          "type": "address"
        },
        {
          "internalType": "uint256",
          "name": "tokenId",
          "type": "uint256"
        },
        {
          "internalType": "bytes",
          "name": "data",
          "type": "bytes"
        }
      ],
      "name": "safeTransferFrom",
      "outputs": [],
      "stateMutability": "nonpayable",
      "type": "function"
    },
    {
      "inputs": [
        {
          "internalType": "address",
          "name": "operator",
          "type": "address"
        },
        {
          "internalType": "bool",
          "name": "approved",
          "type": "bool"
        }
      ],
      "name": "setApprovalForAll",
      "outputs": [],
      "stateMutability": "nonpayable",
      "type": "function"
    },
    {
      "inputs": [
        {
          "internalType": "bytes4",
          "name": "interfaceId",
          "type": "bytes4"
        }
      ],
      "name": "supportsInterface",
      "outputs": [
        {
          "internalType": "bool",
          "name": "",
          "type": "bool"
        }
      ],
      "stateMutability": "view",
      "type": "function"
    },
    {
      "inputs": [],
      "name": "symbol",
      "outputs": [
        {
          "internalType": "string",
          "name": "",
          "type": "string"
        }
      ],
      "stateMutability": "view",
      "type": "function"
    },
    {
      "inputs": [
        {
          "internalType": "uint256",
          "name": "tokenId",
          "type": "uint256"
        }
      ],
      "name": "tokenURI",
      "outputs": [
        {
          "internalType": "string",
          "name": "",
          "type": "string"
        }
      ],
      "stateMutability": "view",
      "type": "function"
    },
    {
      "inputs": [
        {
          "internalType": "address",
          "name": "from",
          "type": "address"
        },
        {
          "internalType": "address",
          "name": "to",
          "type": "address"
        },
        {
          "internalType": "uint256",
          "name": "tokenId",
          "type": "uint256"
        }
      ],
      "name": "transferFrom",
      "outputs": [],
      "stateMutability": "nonpayable",
      "type": "function"
    }
  ],
  "bytecode": "0x60806040526032600855655af3107a40006009553480156200002057600080fd5b506040518060400160405280600781526020017f506f6b654e4654000000000000000000000000000000000000000000000000008152506040518060400160405280600581526020017f504b4e465400000000000000000000000000000000000000000000000000000081525081600090816200009e91906200044a565b508060019081620000b091906200044a565b505050620000fe6040518060400160405280601e81526020017f54686973206973206d79204e465420636f6e74726163742e20576f61682100008152506200010460201b62000ccd1760201c565b620005e4565b620001a4816040516024016200011b9190620005c0565b6040516020818303038152906040527f41304fac000000000000000000000000000000000000000000000000000000007bffffffffffffffffffffffffffffffffffffffffffffffffffffffff19166020820180517bffffffffffffffffffffffffffffffffffffffffffffffffffffffff8381831617835250505050620001a760201b60201c565b50565b60008151905060006a636f6e736f6c652e6c6f679050602083016000808483855afa5050505050565b600081519050919050565b7f4e487b7100000000000000000000000000000000000000000000000000000000600052604160045260246000fd5b7f4e487b7100000000000000000000000000000000000000000000000000000000600052602260045260246000fd5b600060028204905060018216806200025257607f821691505b6020821081036200026857620002676200020a565b5b50919050565b60008190508160005260206000209050919050565b60006020601f8301049050919050565b600082821b905092915050565b600060088302620002d27fffffffffffffffffffffffffffffffffffffffffffffffffffffffffffffffff8262000293565b620002de868362000293565b95508019841693508086168417925050509392505050565b6000819050919050565b6000819050919050565b60006200032b620003256200031f84620002f6565b62000300565b620002f6565b9050919050565b6000819050919050565b62000347836200030a565b6200035f620003568262000332565b848454620002a0565b825550505050565b600090565b6200037662000367565b620003838184846200033c565b505050565b5b81811015620003ab576200039f6000826200036c565b60018101905062000389565b5050565b601f821115620003fa57620003c4816200026e565b620003cf8462000283565b81016020851015620003df578190505b620003f7620003ee8562000283565b83018262000388565b50505b505050565b600082821c905092915050565b60006200041f60001984600802620003ff565b1980831691505092915050565b60006200043a83836200040c565b9150826002028217905092915050565b6200045582620001d0565b67ffffffffffffffff811115620004715762000470620001db565b5b6200047d825462000239565b6200048a828285620003af565b600060209050601f831160018114620004c25760008415620004ad578287015190505b620004b985826200042c565b86555062000529565b601f198416620004d2866200026e565b60005b82811015620004fc57848901518255600182019150602085019450602081019050620004d5565b868310156200051c578489015162000518601f8916826200040c565b8355505b6001600288020188555050505b505050505050565b600082825260208201905092915050565b60005b838110156200056257808201518184015260208101905062000545565b60008484015250505050565b6000601f19601f8301169050919050565b60006200058c82620001d0565b62000598818562000531565b9350620005aa81856020860162000542565b620005b5816200056e565b840191505092915050565b60006020820190508181036000830152620005dc81846200057f565b905092915050565b612fa380620005f46000396000f3fe6080604052600436106100f35760003560e01c806370a082311161008a578063b88d4fde11610059578063b88d4fde1461031b578063c002d23d14610344578063c87b56dd1461036f578063e985e9c5146103ac576100f3565b806370a082311461028057806384c76a37146102bd57806395d89b41146102c7578063a22cb465146102f2576100f3565b806323b872dd116100c657806323b872dd146101c657806332cb6b0c146101ef57806342842e0e1461021a5780636352211e14610243576100f3565b806301ffc9a7146100f857806306fdde0314610135578063081812fc14610160578063095ea7b31461019d575b600080fd5b34801561010457600080fd5b5061011f600480360381019061011a9190611bb5565b6103e9565b60405161012c9190611bfd565b60405180910390f35b34801561014157600080fd5b5061014a6104cb565b6040516101579190611ca8565b60405180910390f35b34801561016c57600080fd5b5061018760048036038101906101829190611d00565b61055d565b6040516101949190611d6e565b60405180910390f35b3480156101a957600080fd5b506101c460048036038101906101bf9190611db5565b6105a3565b005b3480156101d257600080fd5b506101ed60048036038101906101e89190611df5565b6106ba565b005b3480156101fb57600080fd5b5061020461071a565b6040516102119190611e57565b60405180910390f35b34801561022657600080fd5b50610241600480360381019061023c9190611df5565b610720565b005b34801561024f57600080fd5b5061026a60048036038101906102659190611d00565b610740565b6040516102779190611d6e565b60405180910390f35b34801561028c57600080fd5b506102a760048036038101906102a29190611e72565b6107f1565b6040516102b49190611e57565b60405180910390f35b6102c56108a8565b005b3480156102d357600080fd5b506102dc610a17565b6040516102e99190611ca8565b60405180910390f35b3480156102fe57600080fd5b5061031960048036038101906103149190611ecb565b610aa9565b005b34801561032757600080fd5b50610342600480360381019061033d9190612040565b610abf565b005b34801561035057600080fd5b50610359610b21565b6040516103669190611e57565b60405180910390f35b34801561037b57600080fd5b5061039660048036038101906103919190611d00565b610b27565b6040516103a39190611ca8565b60405180910390f35b3480156103b857600080fd5b506103d360048036038101906103ce91906120c3565b610c39565b6040516103e09190611bfd565b60405180910390f35b60007f80ac58cd000000000000000000000000000000000000000000000000000000007bffffffffffffffffffffffffffffffffffffffffffffffffffffffff1916827bffffffffffffffffffffffffffffffffffffffffffffffffffffffff191614806104b457507f5b5e139f000000000000000000000000000000000000000000000000000000007bffffffffffffffffffffffffffffffffffffffffffffffffffffffff1916827bffffffffffffffffffffffffffffffffffffffffffffffffffffffff1916145b806104c457506104c382610d66565b5b9050919050565b6060600080546104da90612132565b80601f016020809104026020016040519081016040528092919081815260200182805461050690612132565b80156105535780601f1061052857610100808354040283529160200191610553565b820191906000526020600020905b81548152906001019060200180831161053657829003601f168201915b5050505050905090565b600061056882610dd0565b6004600083815260200190815260200160002060009054906101000a900473ffffffffffffffffffffffffffffffffffffffff169050919050565b60006105ae82610740565b90508073ffffffffffffffffffffffffffffffffffffffff168373ffffffffffffffffffffffffffffffffffffffff160361061e576040517f08c379a0000000000000000000000000000000000000000000000000000000008152600401610615906121d5565b60405180910390fd5b8073ffffffffffffffffffffffffffffffffffffffff1661063d610e1b565b73ffffffffffffffffffffffffffffffffffffffff16148061066c575061066b81610666610e1b565b610c39565b5b6106ab576040517f08c379a00000000000000000000000000000000000000000000000000000000081526004016106a290612267565b60405180910390fd5b6106b58383610e23565b505050565b6106cb6106c5610e1b565b82610edc565b61070a576040517f08c379a0000000000000000000000000000000000000000000000000000000008152600401610701906122f9565b60405180910390fd5b610715838383610f71565b505050565b60085481565b61073b83838360405180602001604052806000815250610abf565b505050565b6000806002600084815260200190815260200160002060009054906101000a900473ffffffffffffffffffffffffffffffffffffffff169050600073ffffffffffffffffffffffffffffffffffffffff168173ffffffffffffffffffffffffffffffffffffffff16036107e8576040517f08c379a00000000000000000000000000000000000000000000000000000000081526004016107df90612365565b60405180910390fd5b80915050919050565b60008073ffffffffffffffffffffffffffffffffffffffff168273ffffffffffffffffffffffffffffffffffffffff1603610861576040517f08c379a0000000000000000000000000000000000000000000000000000000008152600401610858906123f7565b60405180910390fd5b600360008373ffffffffffffffffffffffffffffffffffffffff1673ffffffffffffffffffffffffffffffffffffffff168152602001908152602001600020549050919050565b6008546108b560076111d7565b106108f5576040517f08c379a00000000000000000000000000000000000000000000000000000000081526004016108ec90612463565b60405180910390fd5b60095434101561093a576040517f08c379a0000000000000000000000000000000000000000000000000000000008152600401610931906124cf565b60405180910390fd5b600061094660076111d7565b905061095233826111e5565b600061095d82611203565b60405160200161096d91906125c3565b6040516020818303038152906040529050600081604051602001610991919061260b565b60405160208183030381529060405290506109ac8382611363565b6109cf604051806060016040528060258152602001612f496025913984336113d0565b6109d9600761146f565b7febb98688741ffa4c7589bf325de30cf7becb63de567842e1ccdb6cb949fdc82c3384604051610a0a929190612631565b60405180910390a1505050565b606060018054610a2690612132565b80601f0160208091040260200160405190810160405280929190818152602001828054610a5290612132565b8015610a9f5780601f10610a7457610100808354040283529160200191610a9f565b820191906000526020600020905b815481529060010190602001808311610a8257829003601f168201915b5050505050905090565b610abb610ab4610e1b565b8383611485565b5050565b610ad0610aca610e1b565b83610edc565b610b0f576040517f08c379a0000000000000000000000000000000000000000000000000000000008152600401610b06906122f9565b60405180910390fd5b610b1b848484846115f1565b50505050565b60095481565b6060610b3282610dd0565b6000600660008481526020019081526020016000208054610b5290612132565b80601f0160208091040260200160405190810160405280929190818152602001828054610b7e90612132565b8015610bcb5780601f10610ba057610100808354040283529160200191610bcb565b820191906000526020600020905b815481529060010190602001808311610bae57829003601f168201915b505050505090506000610bdc61164d565b90506000815103610bf1578192505050610c34565b600082511115610c26578082604051602001610c0e92919061265a565b60405160208183030381529060405292505050610c34565b610c2f84611664565b925050505b919050565b6000600560008473ffffffffffffffffffffffffffffffffffffffff1673ffffffffffffffffffffffffffffffffffffffff16815260200190815260200160002060008373ffffffffffffffffffffffffffffffffffffffff1673ffffffffffffffffffffffffffffffffffffffff16815260200190815260200160002060009054906101000a900460ff16905092915050565b610d6381604051602401610ce19190611ca8565b6040516020818303038152906040527f41304fac000000000000000000000000000000000000000000000000000000007bffffffffffffffffffffffffffffffffffffffffffffffffffffffff19166020820180517bffffffffffffffffffffffffffffffffffffffffffffffffffffffff83818316178352505050506116cc565b50565b60007f01ffc9a7000000000000000000000000000000000000000000000000000000007bffffffffffffffffffffffffffffffffffffffffffffffffffffffff1916827bffffffffffffffffffffffffffffffffffffffffffffffffffffffff1916149050919050565b610dd9816116f5565b610e18576040517f08c379a0000000000000000000000000000000000000000000000000000000008152600401610e0f90612365565b60405180910390fd5b50565b600033905090565b816004600083815260200190815260200160002060006101000a81548173ffffffffffffffffffffffffffffffffffffffff021916908373ffffffffffffffffffffffffffffffffffffffff160217905550808273ffffffffffffffffffffffffffffffffffffffff16610e9683610740565b73ffffffffffffffffffffffffffffffffffffffff167f8c5be1e5ebec7d5bd14f71427d1e84f3dd0314c0f7b2291e5b200ac8c7c3b92560405160405180910390a45050565b600080610ee883610740565b90508073ffffffffffffffffffffffffffffffffffffffff168473ffffffffffffffffffffffffffffffffffffffff161480610f2a5750610f298185610c39565b5b80610f6857508373ffffffffffffffffffffffffffffffffffffffff16610f508461055d565b73ffffffffffffffffffffffffffffffffffffffff16145b91505092915050565b8273ffffffffffffffffffffffffffffffffffffffff16610f9182610740565b73ffffffffffffffffffffffffffffffffffffffff1614610fe7576040517f08c379a0000000000000000000000000000000000000000000000000000000008152600401610fde906126f0565b60405180910390fd5b600073ffffffffffffffffffffffffffffffffffffffff168273ffffffffffffffffffffffffffffffffffffffff1603611056576040517f08c379a000000000000000000000000000000000000000000000000000000000815260040161104d90612782565b60405180910390fd5b611061838383611761565b61106c600082610e23565b6001600360008573ffffffffffffffffffffffffffffffffffffffff1673ffffffffffffffffffffffffffffffffffffffff16815260200190815260200160002060008282546110bc91906127d1565b925050819055506001600360008473ffffffffffffffffffffffffffffffffffffffff1673ffffffffffffffffffffffffffffffffffffffff16815260200190815260200160002060008282546111139190612805565b92505081905550816002600083815260200190815260200160002060006101000a81548173ffffffffffffffffffffffffffffffffffffffff021916908373ffffffffffffffffffffffffffffffffffffffff160217905550808273ffffffffffffffffffffffffffffffffffffffff168473ffffffffffffffffffffffffffffffffffffffff167fddf252ad1be2c89b69c2b068fc378daa952ba7f163c4a11628f55a4df523b3ef60405160405180910390a46111d2838383611766565b505050565b600081600001549050919050565b6111ff82826040518060200160405280600081525061176b565b5050565b60606000820361124a576040518060400160405280600181526020017f3000000000000000000000000000000000000000000000000000000000000000815250905061135e565b600082905060005b6000821461127c57808061126590612839565b915050600a8261127591906128b0565b9150611252565b60008167ffffffffffffffff81111561129857611297611f15565b5b6040519080825280601f01601f1916602001820160405280156112ca5781602001600182028036833780820191505090505b5090505b60008514611357576001826112e391906127d1565b9150600a856112f291906128e1565b60306112fe9190612805565b60f81b81838151811061131457611313612912565b5b60200101907effffffffffffffffffffffffffffffffffffffffffffffffffffffffffffff1916908160001a905350600a8561135091906128b0565b94506112ce565b8093505050505b919050565b61136c826116f5565b6113ab576040517f08c379a00000000000000000000000000000000000000000000000000000000081526004016113a2906129b3565b60405180910390fd5b806006600084815260200190815260200160002090816113cb9190612b7f565b505050565b61146a8383836040516024016113e893929190612c51565b6040516020818303038152906040527f1c7ec448000000000000000000000000000000000000000000000000000000007bffffffffffffffffffffffffffffffffffffffffffffffffffffffff19166020820180517bffffffffffffffffffffffffffffffffffffffffffffffffffffffff83818316178352505050506116cc565b505050565b6001816000016000828254019250508190555050565b8173ffffffffffffffffffffffffffffffffffffffff168373ffffffffffffffffffffffffffffffffffffffff16036114f3576040517f08c379a00000000000000000000000000000000000000000000000000000000081526004016114ea90612cdb565b60405180910390fd5b80600560008573ffffffffffffffffffffffffffffffffffffffff1673ffffffffffffffffffffffffffffffffffffffff16815260200190815260200160002060008473ffffffffffffffffffffffffffffffffffffffff1673ffffffffffffffffffffffffffffffffffffffff16815260200190815260200160002060006101000a81548160ff0219169083151502179055508173ffffffffffffffffffffffffffffffffffffffff168373ffffffffffffffffffffffffffffffffffffffff167f17307eab39ab6107e8899845ad3d59bd9653f200f220920489ca2b5937696c31836040516115e49190611bfd565b60405180910390a3505050565b6115fc848484610f71565b611608848484846117c6565b611647576040517f08c379a000000000000000000000000000000000000000000000000000000000815260040161163e90612d6d565b60405180910390fd5b50505050565b606060405180602001604052806000815250905090565b606061166f82610dd0565b600061167961164d565b9050600081511161169957604051806020016040528060008152506116c4565b806116a384611203565b6040516020016116b492919061265a565b6040516020818303038152906040525b915050919050565b60008151905060006a636f6e736f6c652e6c6f679050602083016000808483855afa5050505050565b60008073ffffffffffffffffffffffffffffffffffffffff166002600084815260200190815260200160002060009054906101000a900473ffffffffffffffffffffffffffffffffffffffff1673ffffffffffffffffffffffffffffffffffffffff1614159050919050565b505050565b505050565b611775838361194d565b61178260008484846117c6565b6117c1576040517f08c379a00000000000000000000000000000000000000000000000000000000081526004016117b890612d6d565b60405180910390fd5b505050565b60006117e78473ffffffffffffffffffffffffffffffffffffffff16611b26565b15611940578373ffffffffffffffffffffffffffffffffffffffff1663150b7a02611810610e1b565b8786866040518563ffffffff1660e01b81526004016118329493929190612de2565b6020604051808303816000875af192505050801561186e57506040513d601f19601f8201168201806040525081019061186b9190612e43565b60015b6118f0573d806000811461189e576040519150601f19603f3d011682016040523d82523d6000602084013e6118a3565b606091505b5060008151036118e8576040517f08c379a00000000000000000000000000000000000000000000000000000000081526004016118df90612d6d565b60405180910390fd5b805181602001fd5b63150b7a0260e01b7bffffffffffffffffffffffffffffffffffffffffffffffffffffffff1916817bffffffffffffffffffffffffffffffffffffffffffffffffffffffff191614915050611945565b600190505b949350505050565b600073ffffffffffffffffffffffffffffffffffffffff168273ffffffffffffffffffffffffffffffffffffffff16036119bc576040517f08c379a00000000000000000000000000000000000000000000000000000000081526004016119b390612ebc565b60405180910390fd5b6119c5816116f5565b15611a05576040517f08c379a00000000000000000000000000000000000000000000000000000000081526004016119fc90612f28565b60405180910390fd5b611a1160008383611761565b6001600360008473ffffffffffffffffffffffffffffffffffffffff1673ffffffffffffffffffffffffffffffffffffffff1681526020019081526020016000206000828254611a619190612805565b92505081905550816002600083815260200190815260200160002060006101000a81548173ffffffffffffffffffffffffffffffffffffffff021916908373ffffffffffffffffffffffffffffffffffffffff160217905550808273ffffffffffffffffffffffffffffffffffffffff16600073ffffffffffffffffffffffffffffffffffffffff167fddf252ad1be2c89b69c2b068fc378daa952ba7f163c4a11628f55a4df523b3ef60405160405180910390a4611b2260008383611766565b5050565b6000808273ffffffffffffffffffffffffffffffffffffffff163b119050919050565b6000604051905090565b600080fd5b600080fd5b60007fffffffff0000000000000000000000000000000000000000000000000000000082169050919050565b611b9281611b5d565b8114611b9d57600080fd5b50565b600081359050611baf81611b89565b92915050565b600060208284031215611bcb57611bca611b53565b5b6000611bd984828501611ba0565b91505092915050565b60008115159050919050565b611bf781611be2565b82525050565b6000602082019050611c126000830184611bee565b92915050565b600081519050919050565b600082825260208201905092915050565b60005b83811015611c52578082015181840152602081019050611c37565b60008484015250505050565b6000601f19601f8301169050919050565b6000611c7a82611c18565b611c848185611c23565b9350611c94818560208601611c34565b611c9d81611c5e565b840191505092915050565b60006020820190508181036000830152611cc28184611c6f565b905092915050565b6000819050919050565b611cdd81611cca565b8114611ce857600080fd5b50565b600081359050611cfa81611cd4565b92915050565b600060208284031215611d1657611d15611b53565b5b6000611d2484828501611ceb565b91505092915050565b600073ffffffffffffffffffffffffffffffffffffffff82169050919050565b6000611d5882611d2d565b9050919050565b611d6881611d4d565b82525050565b6000602082019050611d836000830184611d5f565b92915050565b611d9281611d4d565b8114611d9d57600080fd5b50565b600081359050611daf81611d89565b92915050565b60008060408385031215611dcc57611dcb611b53565b5b6000611dda85828601611da0565b9250506020611deb85828601611ceb565b9150509250929050565b600080600060608486031215611e0e57611e0d611b53565b5b6000611e1c86828701611da0565b9350506020611e2d86828701611da0565b9250506040611e3e86828701611ceb565b9150509250925092565b611e5181611cca565b82525050565b6000602082019050611e6c6000830184611e48565b92915050565b600060208284031215611e8857611e87611b53565b5b6000611e9684828501611da0565b91505092915050565b611ea881611be2565b8114611eb357600080fd5b50565b600081359050611ec581611e9f565b92915050565b60008060408385031215611ee257611ee1611b53565b5b6000611ef085828601611da0565b9250506020611f0185828601611eb6565b9150509250929050565b600080fd5b600080fd5b7f4e487b7100000000000000000000000000000000000000000000000000000000600052604160045260246000fd5b611f4d82611c5e565b810181811067ffffffffffffffff82111715611f6c57611f6b611f15565b5b80604052505050565b6000611f7f611b49565b9050611f8b8282611f44565b919050565b600067ffffffffffffffff821115611fab57611faa611f15565b5b611fb482611c5e565b9050602081019050919050565b82818337600083830152505050565b6000611fe3611fde84611f90565b611f75565b905082815260208101848484011115611fff57611ffe611f10565b5b61200a848285611fc1565b509392505050565b600082601f83011261202757612026611f0b565b5b8135612037848260208601611fd0565b91505092915050565b6000806000806080858703121561205a57612059611b53565b5b600061206887828801611da0565b945050602061207987828801611da0565b935050604061208a87828801611ceb565b925050606085013567ffffffffffffffff8111156120ab576120aa611b58565b5b6120b787828801612012565b91505092959194509250565b600080604083850312156120da576120d9611b53565b5b60006120e885828601611da0565b92505060206120f985828601611da0565b9150509250929050565b7f4e487b7100000000000000000000000000000000000000000000000000000000600052602260045260246000fd5b6000600282049050600182168061214a57607f821691505b60208210810361215d5761215c612103565b5b50919050565b7f4552433732313a20617070726f76616c20746f2063757272656e74206f776e6560008201527f7200000000000000000000000000000000000000000000000000000000000000602082015250565b60006121bf602183611c23565b91506121ca82612163565b604082019050919050565b600060208201905081810360008301526121ee816121b2565b9050919050565b7f4552433732313a20617070726f76652063616c6c6572206973206e6f7420746f60008201527f6b656e206f776e6572206e6f7220617070726f76656420666f7220616c6c0000602082015250565b6000612251603e83611c23565b915061225c826121f5565b604082019050919050565b6000602082019050818103600083015261228081612244565b9050919050565b7f4552433732313a2063616c6c6572206973206e6f7420746f6b656e206f776e6560008201527f72206e6f7220617070726f766564000000000000000000000000000000000000602082015250565b60006122e3602e83611c23565b91506122ee82612287565b604082019050919050565b60006020820190508181036000830152612312816122d6565b9050919050565b7f4552433732313a20696e76616c696420746f6b656e2049440000000000000000600082015250565b600061234f601883611c23565b915061235a82612319565b602082019050919050565b6000602082019050818103600083015261237e81612342565b9050919050565b7f4552433732313a2061646472657373207a65726f206973206e6f74206120766160008201527f6c6964206f776e65720000000000000000000000000000000000000000000000602082015250565b60006123e1602983611c23565b91506123ec82612385565b604082019050919050565b60006020820190508181036000830152612410816123d4565b9050919050565b7f4d617820737570706c7920686173206265656e20726561636865640000000000600082015250565b600061244d601b83611c23565b915061245882612417565b602082019050919050565b6000602082019050818103600083015261247c81612440565b9050919050565b7f4e6f7420656e6f7567682045544820746f206d696e7400000000000000000000600082015250565b60006124b9601683611c23565b91506124c482612483565b602082019050919050565b600060208201905081810360008301526124e8816124ac565b9050919050565b600081905092915050565b7f68747470733a2f2f676174657761792e70696e6174612e636c6f75642f69706660008201527f732f516d543938446b6a426b63746e31384377754458586533787948676f647a60208201527f7865794b716b486e504a7a52676d46632f000000000000000000000000000000604082015250565b600061257c6051836124ef565b9150612587826124fa565b605182019050919050565b600061259d82611c18565b6125a781856124ef565b93506125b7818560208601611c34565b80840191505092915050565b60006125ce8261256f565b91506125da8284612592565b915081905092915050565b7f2e6a736f6e000000000000000000000000000000000000000000000000000000815250565b60006126178284612592565b9150612622826125e5565b60058201915081905092915050565b60006040820190506126466000830185611d5f565b6126536020830184611e48565b9392505050565b60006126668285612592565b91506126728284612592565b91508190509392505050565b7f4552433732313a207472616e736665722066726f6d20696e636f72726563742060008201527f6f776e6572000000000000000000000000000000000000000000000000000000602082015250565b60006126da602583611c23565b91506126e58261267e565b604082019050919050565b60006020820190508181036000830152612709816126cd565b9050919050565b7f4552433732313a207472616e7366657220746f20746865207a65726f2061646460008201527f7265737300000000000000000000000000000000000000000000000000000000602082015250565b600061276c602483611c23565b915061277782612710565b604082019050919050565b6000602082019050818103600083015261279b8161275f565b9050919050565b7f4e487b7100000000000000000000000000000000000000000000000000000000600052601160045260246000fd5b60006127dc82611cca565b91506127e783611cca565b92508282039050818111156127ff576127fe6127a2565b5b92915050565b600061281082611cca565b915061281b83611cca565b9250828201905080821115612833576128326127a2565b5b92915050565b600061284482611cca565b91507fffffffffffffffffffffffffffffffffffffffffffffffffffffffffffffffff8203612876576128756127a2565b5b600182019050919050565b7f4e487b7100000000000000000000000000000000000000000000000000000000600052601260045260246000fd5b60006128bb82611cca565b91506128c683611cca565b9250826128d6576128d5612881565b5b828204905092915050565b60006128ec82611cca565b91506128f783611cca565b92508261290757612906612881565b5b828206905092915050565b7f4e487b7100000000000000000000000000000000000000000000000000000000600052603260045260246000fd5b7f45524337323155524953746f726167653a2055524920736574206f66206e6f6e60008201527f6578697374656e7420746f6b656e000000000000000000000000000000000000602082015250565b600061299d602e83611c23565b91506129a882612941565b604082019050919050565b600060208201905081810360008301526129cc81612990565b9050919050565b60008190508160005260206000209050919050565b60006020601f8301049050919050565b600082821b905092915050565b600060088302612a357fffffffffffffffffffffffffffffffffffffffffffffffffffffffffffffffff826129f8565b612a3f86836129f8565b95508019841693508086168417925050509392505050565b6000819050919050565b6000612a7c612a77612a7284611cca565b612a57565b611cca565b9050919050565b6000819050919050565b612a9683612a61565b612aaa612aa282612a83565b848454612a05565b825550505050565b600090565b612abf612ab2565b612aca818484612a8d565b505050565b5b81811015612aee57612ae3600082612ab7565b600181019050612ad0565b5050565b601f821115612b3357612b04816129d3565b612b0d846129e8565b81016020851015612b1c578190505b612b30612b28856129e8565b830182612acf565b50505b505050565b600082821c905092915050565b6000612b5660001984600802612b38565b1980831691505092915050565b6000612b6f8383612b45565b9150826002028217905092915050565b612b8882611c18565b67ffffffffffffffff811115612ba157612ba0611f15565b5b612bab8254612132565b612bb6828285612af2565b600060209050601f831160018114612be95760008415612bd7578287015190505b612be18582612b63565b865550612c49565b601f198416612bf7866129d3565b60005b82811015612c1f57848901518255600182019150602085019450602081019050612bfa565b86831015612c3c5784890151612c38601f891682612b45565b8355505b6001600288020188555050505b505050505050565b60006060820190508181036000830152612c6b8186611c6f565b9050612c7a6020830185611e48565b612c876040830184611d5f565b949350505050565b7f4552433732313a20617070726f766520746f2063616c6c657200000000000000600082015250565b6000612cc5601983611c23565b9150612cd082612c8f565b602082019050919050565b60006020820190508181036000830152612cf481612cb8565b9050919050565b7f4552433732313a207472616e7366657220746f206e6f6e20455243373231526560008201527f63656976657220696d706c656d656e7465720000000000000000000000000000602082015250565b6000612d57603283611c23565b9150612d6282612cfb565b604082019050919050565b60006020820190508181036000830152612d8681612d4a565b9050919050565b600081519050919050565b600082825260208201905092915050565b6000612db482612d8d565b612dbe8185612d98565b9350612dce818560208601611c34565b612dd781611c5e565b840191505092915050565b6000608082019050612df76000830187611d5f565b612e046020830186611d5f565b612e116040830185611e48565b8181036060830152612e238184612da9565b905095945050505050565b600081519050612e3d81611b89565b92915050565b600060208284031215612e5957612e58611b53565b5b6000612e6784828501612e2e565b91505092915050565b7f4552433732313a206d696e7420746f20746865207a65726f2061646472657373600082015250565b6000612ea6602083611c23565b9150612eb182612e70565b602082019050919050565b60006020820190508181036000830152612ed581612e99565b9050919050565b7f4552433732313a20746f6b656e20616c7265616479206d696e74656400000000600082015250565b6000612f12601c83611c23565b9150612f1d82612edc565b602082019050919050565b60006020820190508181036000830152612f4181612f05565b905091905056fe416e204e465420772f20494420257320686173206265656e206d696e74656420746f202573a264697066735822122024348b8c23f8bd579fe4b6f9b1beb9cd9423898f81a4651aa5561abd4d516ec664736f6c63430008110033",
  "linkReferences": {},
  "deployedLinkReferences": {}
}